{
  "_format": "hh3-artifact-1",
  "contractName": "ElemStaking",
  "sourceName": "contracts/ElemStaking.sol",
  "abi": [
    {
      "inputs": [
        {
          "internalType": "address",
          "name": "_elemToken",
          "type": "address"
        },
        {
          "internalType": "address",
          "name": "_priceFeed",
          "type": "address"
        },
        {
          "internalType": "address",
          "name": "initialOwner",
          "type": "address"
        }
      ],
      "stateMutability": "nonpayable",
      "type": "constructor"
    },
    {
      "inputs": [
        {
          "internalType": "address",
          "name": "owner",
          "type": "address"
        }
      ],
      "name": "OwnableInvalidOwner",
      "type": "error"
    },
    {
      "inputs": [
        {
          "internalType": "address",
          "name": "account",
          "type": "address"
        }
      ],
      "name": "OwnableUnauthorizedAccount",
      "type": "error"
    },
    {
      "inputs": [],
      "name": "ReentrancyGuardReentrantCall",
      "type": "error"
    },
    {
      "inputs": [
        {
          "internalType": "address",
          "name": "token",
          "type": "address"
        }
      ],
      "name": "SafeERC20FailedOperation",
      "type": "error"
    },
    {
      "anonymous": false,
      "inputs": [
        {
          "indexed": true,
          "internalType": "address",
          "name": "previousOwner",
          "type": "address"
        },
        {
          "indexed": true,
          "internalType": "address",
          "name": "newOwner",
          "type": "address"
        }
      ],
      "name": "OwnershipTransferred",
      "type": "event"
    },
    {
      "anonymous": false,
      "inputs": [
        {
          "indexed": true,
          "internalType": "address",
          "name": "user",
          "type": "address"
        },
        {
          "indexed": false,
          "internalType": "uint256",
          "name": "reward",
          "type": "uint256"
        }
      ],
      "name": "RewardClaimed",
      "type": "event"
    },
    {
      "anonymous": false,
      "inputs": [
        {
          "indexed": true,
          "internalType": "address",
          "name": "user",
          "type": "address"
        },
        {
          "indexed": false,
          "internalType": "uint256",
          "name": "amount",
          "type": "uint256"
        }
      ],
      "name": "Staked",
      "type": "event"
    },
    {
      "anonymous": false,
      "inputs": [
        {
          "indexed": true,
          "internalType": "address",
          "name": "user",
          "type": "address"
        },
        {
          "indexed": false,
          "internalType": "uint256",
          "name": "amount",
          "type": "uint256"
        }
      ],
      "name": "Withdrawn",
      "type": "event"
    },
    {
      "inputs": [],
      "name": "REFERENCE_PRICE",
      "outputs": [
        {
          "internalType": "int256",
          "name": "",
          "type": "int256"
        }
      ],
      "stateMutability": "view",
      "type": "function"
    },
    {
      "inputs": [],
      "name": "baseRate",
      "outputs": [
        {
          "internalType": "uint256",
          "name": "",
          "type": "uint256"
        }
      ],
      "stateMutability": "view",
      "type": "function"
    },
    {
      "inputs": [],
      "name": "claimReward",
      "outputs": [],
      "stateMutability": "nonpayable",
      "type": "function"
    },
    {
      "inputs": [],
      "name": "elemToken",
      "outputs": [
        {
          "internalType": "contract IERC20",
          "name": "",
          "type": "address"
        }
      ],
      "stateMutability": "view",
      "type": "function"
    },
    {
      "inputs": [],
      "name": "owner",
      "outputs": [
        {
          "internalType": "address",
          "name": "",
          "type": "address"
        }
      ],
      "stateMutability": "view",
      "type": "function"
    },
    {
      "inputs": [
        {
          "internalType": "address",
          "name": "user",
          "type": "address"
        }
      ],
      "name": "pendingReward",
      "outputs": [
        {
          "internalType": "uint256",
          "name": "",
          "type": "uint256"
        }
      ],
      "stateMutability": "view",
      "type": "function"
    },
    {
      "inputs": [],
      "name": "priceFeed",
      "outputs": [
        {
          "internalType": "contract IPriceFeed",
          "name": "",
          "type": "address"
        }
      ],
      "stateMutability": "view",
      "type": "function"
    },
    {
      "inputs": [],
      "name": "renounceOwnership",
      "outputs": [],
      "stateMutability": "nonpayable",
      "type": "function"
    },
    {
      "inputs": [
        {
          "internalType": "uint256",
          "name": "newRate",
          "type": "uint256"
        }
      ],
      "name": "setBaseRate",
      "outputs": [],
      "stateMutability": "nonpayable",
      "type": "function"
    },
    {
      "inputs": [
        {
          "internalType": "address",
          "name": "newFeed",
          "type": "address"
        }
      ],
      "name": "setPriceFeed",
      "outputs": [],
      "stateMutability": "nonpayable",
      "type": "function"
    },
    {
      "inputs": [
        {
          "internalType": "uint256",
          "name": "amount",
          "type": "uint256"
        }
      ],
      "name": "stake",
      "outputs": [],
      "stateMutability": "nonpayable",
      "type": "function"
    },
    {
      "inputs": [
        {
          "internalType": "address",
          "name": "",
          "type": "address"
        }
      ],
      "name": "stakes",
      "outputs": [
        {
          "internalType": "uint256",
          "name": "amount",
          "type": "uint256"
        },
        {
          "internalType": "uint256",
          "name": "rewardDebt",
          "type": "uint256"
        },
        {
          "internalType": "uint256",
          "name": "lastUpdate",
          "type": "uint256"
        }
      ],
      "stateMutability": "view",
      "type": "function"
    },
    {
      "inputs": [],
      "name": "totalStaked",
      "outputs": [
        {
          "internalType": "uint256",
          "name": "",
          "type": "uint256"
        }
      ],
      "stateMutability": "view",
      "type": "function"
    },
    {
      "inputs": [
        {
          "internalType": "address",
          "name": "newOwner",
          "type": "address"
        }
      ],
      "name": "transferOwnership",
      "outputs": [],
      "stateMutability": "nonpayable",
      "type": "function"
    },
    {
      "inputs": [
        {
          "internalType": "uint256",
          "name": "amount",
          "type": "uint256"
        }
      ],
      "name": "withdraw",
      "outputs": [],
      "stateMutability": "nonpayable",
      "type": "function"
    }
  ],
  "bytecode": "0x60a06040526064600255348015610014575f5ffd5b50604051610cf6380380610cf683398101604081905261003391610122565b8060017f9b779b17422d0df92223018b32b4d1fa46e071723d6817e2486d003becc55f00556001600160a01b03811661008557604051631e4fbdf760e01b81525f600482015260240160405180910390fd5b61008e816100b8565b50506001600160a01b03918216608052600180546001600160a01b03191691909216179055610162565b5f80546001600160a01b038381166001600160a01b0319831681178455604051919092169283917f8be0079c531659141344cd1fd0a4f28419497f9722a3daafe3b4186f6b6457e09190a35050565b80516001600160a01b038116811461011d575f5ffd5b919050565b5f5f5f60608486031215610134575f5ffd5b61013d84610107565b925061014b60208501610107565b915061015960408501610107565b90509250925092565b608051610b6761018f5f395f81816101730152818161031301528181610433015261055f0152610b675ff3fe608060405234801561000f575f5ffd5b50600436106100f0575f3560e01c8063724e78da11610093578063a694fc3a11610063578063a694fc3a14610213578063b88a802f14610226578063f2fde38b1461022e578063f40f0f5214610241575f5ffd5b8063724e78da146101d4578063741bef1a146101e7578063817b1cd2146101fa5780638da5cb5b14610203575f5ffd5b806325db830b116100ce57806325db830b1461016e5780632e1a7d4d146101ad578063703f8d28146101c0578063715018a6146101cc575f5ffd5b806316934fc4146100f45780631d08837b146101425780631f68f20a14610157575b5f5ffd5b610122610102366004610a46565b60036020525f908152604090208054600182015460029092015490919083565b604080519384526020840192909252908201526060015b60405180910390f35b610155610150366004610a73565b610254565b005b61016060025481565b604051908152602001610139565b6101957f000000000000000000000000000000000000000000000000000000000000000081565b6040516001600160a01b039091168152602001610139565b6101556101bb366004610a73565b610261565b610160642e90edd00081565b610155610389565b6101556101e2366004610a46565b61039c565b600154610195906001600160a01b031681565b61016060045481565b5f546001600160a01b0316610195565b610155610221366004610a73565b6103c6565b6101556104e1565b61015561023c366004610a46565b6105da565b61016061024f366004610a46565b610614565b61025c6106c9565b600255565b6102696106f5565b335f90815260036020526040902080548211156102cd5760405162461bcd60e51b815260206004820152601d60248201527f5374616b696e673a20696e73756666696369656e742062616c616e636500000060448201526064015b60405180910390fd5b6102d633610710565b81815f015f8282546102e89190610a9e565b925050819055508160045f8282546103009190610a9e565b9091555061033a90506001600160a01b037f00000000000000000000000000000000000000000000000000000000000000001633846107af565b60405182815233907f7084f5476618d8e60b11ef0d7d3f06914655adb8793e28ff7f018d4c76d505d59060200160405180910390a25061038660015f516020610b125f395f51905f5255565b50565b6103916106c9565b61039a5f6107e9565b565b6103a46106c9565b600180546001600160a01b0319166001600160a01b0392909216919091179055565b6103ce6106f5565b5f811161041d5760405162461bcd60e51b815260206004820152601b60248201527f5374616b696e673a20616d6f756e74206d757374206265203e2030000000000060448201526064016102c4565b61042633610710565b61045b6001600160a01b037f000000000000000000000000000000000000000000000000000000000000000016333084610838565b335f9081526003602052604081208054839290610479908490610ab1565b925050819055508060045f8282546104919190610ab1565b909155505060405181815233907f9e71bc8eea02a63969f509818f2dafb9254532904319f9dbda79b67bd34a5f3d9060200160405180910390a261038660015f516020610b125f395f51905f5255565b6104e96106f5565b6104f233610710565b335f90815260036020526040902060010154806105475760405162461bcd60e51b81526020600482015260136024820152725374616b696e673a206e6f207265776172647360681b60448201526064016102c4565b335f8181526003602052604081206001015561058e907f00000000000000000000000000000000000000000000000000000000000000006001600160a01b031690836107af565b60405181815233907f106f923f993c2149d49b4255ff723acafa1f2d94393f561d3eda32ae348f72419060200160405180910390a25061039a60015f516020610b125f395f51905f5255565b6105e26106c9565b6001600160a01b03811661060b57604051631e4fbdf760e01b81525f60048201526024016102c4565b610386816107e9565b6001600160a01b0381165f9081526003602090815260408083208151606081018352815480825260018301549482019490945260029091015491810191909152908203610665576020015192915050565b5f8160400151426106769190610a9e565b90505f610681610874565b90505f63337f98008383865f01516106999190610ac4565b6106a39190610ac4565b6106ad9190610adb565b90508084602001516106bf9190610ab1565b9695505050505050565b5f546001600160a01b0316331461039a5760405163118cdaa760e01b81523360048201526024016102c4565b6106fd610948565b60025f516020610b125f395f51905f5255565b6001600160a01b0381165f90815260036020526040902080541580159061073a57505f8160020154115b156107a5575f8160020154426107509190610a9e565b90505f61075b610874565b90505f63337f98008383865f01546107739190610ac4565b61077d9190610ac4565b6107879190610adb565b905080846001015f82825461079c9190610ab1565b90915550505050505b4260029091015550565b6107bc8383836001610977565b6107e457604051635274afe760e01b81526001600160a01b03841660048201526024016102c4565b505050565b5f80546001600160a01b038381166001600160a01b0319831681178455604051919092169283917f8be0079c531659141344cd1fd0a4f28419497f9722a3daafe3b4186f6b6457e09190a35050565b6108468484848460016109d9565b61086e57604051635274afe760e01b81526001600160a01b03851660048201526024016102c4565b50505050565b5f5f60015f9054906101000a90046001600160a01b03166001600160a01b0316638e15f4736040518163ffffffff1660e01b8152600401602060405180830381865afa1580156108c6573d5f5f3e3d5ffd5b505050506040513d601f19601f820116820180604052508101906108ea9190610afa565b90505f81136108fb57505060025490565b5f81642e90edd0006002546109109190610ac4565b61091a9190610adb565b9050600a81101561092e57600a9250505090565b6101f4811115610942576101f49250505090565b92915050565b5f516020610b125f395f51905f525460020361039a57604051633ee5aeb560e01b815260040160405180910390fd5b60405163a9059cbb60e01b5f8181526001600160a01b038616600452602485905291602083604481808b5af1925060015f511483166109cd5783831516156109c1573d5f823e3d81fd5b5f873b113d1516831692505b60405250949350505050565b6040516323b872dd60e01b5f8181526001600160a01b038781166004528616602452604485905291602083606481808c5af1925060015f51148316610a35578383151615610a29573d5f823e3d81fd5b5f883b113d1516831692505b604052505f60605295945050505050565b5f60208284031215610a56575f5ffd5b81356001600160a01b0381168114610a6c575f5ffd5b9392505050565b5f60208284031215610a83575f5ffd5b5035919050565b634e487b7160e01b5f52601160045260245ffd5b8181038181111561094257610942610a8a565b8082018082111561094257610942610a8a565b808202811582820484141761094257610942610a8a565b5f82610af557634e487b7160e01b5f52601260045260245ffd5b500490565b5f60208284031215610b0a575f5ffd5b505191905056fe9b779b17422d0df92223018b32b4d1fa46e071723d6817e2486d003becc55f00a26469706673582212203bc848ff7a3cca459cce1d612df29c1d37fb91d952883d14be4b87ff754ec30764736f6c634300081c0033",
  "linkReferences": {},
  "deployedLinkReferences": {},
  "immutableReferences": {
    "1073": [
      {
        "length": 32,
        "start": 371
      },
      {
        "length": 32,
        "start": 787
      },
      {
        "length": 32,
        "start": 1075
      },
      {
        "length": 32,
        "start": 1375
      }
    ]
  },
  "inputSourceName": "project/contracts/ElemStaking.sol",
  "buildInfoId": "solc-0_8_28-356db594a71cde7db24c384dab627d85c3764df2"
}