{
  "_format": "hh3-artifact-1",
  "contractName": "ElemToken",
  "sourceName": "contracts/ElemToken.sol",
  "abi": [
    {
      "inputs": [
        {
          "internalType": "address",
          "name": "initialOwner",
          "type": "address"
        }
      ],
      "stateMutability": "nonpayable",
      "type": "constructor"
    },
    {
      "inputs": [
        {
          "internalType": "address",
          "name": "spender",
          "type": "address"
        },
        {
          "internalType": "uint256",
          "name": "allowance",
          "type": "uint256"
        },
        {
          "internalType": "uint256",
          "name": "needed",
          "type": "uint256"
        }
      ],
      "name": "ERC20InsufficientAllowance",
      "type": "error"
    },
    {
      "inputs": [
        {
          "internalType": "address",
          "name": "sender",
          "type": "address"
        },
        {
          "internalType": "uint256",
          "name": "balance",
          "type": "uint256"
        },
        {
          "internalType": "uint256",
          "name": "needed",
          "type": "uint256"
        }
      ],
      "name": "ERC20InsufficientBalance",
      "type": "error"
    },
    {
      "inputs": [
        {
          "internalType": "address",
          "name": "approver",
          "type": "address"
        }
      ],
      "name": "ERC20InvalidApprover",
      "type": "error"
    },
    {
      "inputs": [
        {
          "internalType": "address",
          "name": "receiver",
          "type": "address"
        }
      ],
      "name": "ERC20InvalidReceiver",
      "type": "error"
    },
    {
      "inputs": [
        {
          "internalType": "address",
          "name": "sender",
          "type": "address"
        }
      ],
      "name": "ERC20InvalidSender",
      "type": "error"
    },
    {
      "inputs": [
        {
          "internalType": "address",
          "name": "spender",
          "type": "address"
        }
      ],
      "name": "ERC20InvalidSpender",
      "type": "error"
    },
    {
      "inputs": [],
      "name": "EnforcedPause",
      "type": "error"
    },
    {
      "inputs": [],
      "name": "ExpectedPause",
      "type": "error"
    },
    {
      "inputs": [
        {
          "internalType": "address",
          "name": "owner",
          "type": "address"
        }
      ],
      "name": "OwnableInvalidOwner",
      "type": "error"
    },
    {
      "inputs": [
        {
          "internalType": "address",
          "name": "account",
          "type": "address"
        }
      ],
      "name": "OwnableUnauthorizedAccount",
      "type": "error"
    },
    {
      "anonymous": false,
      "inputs": [
        {
          "indexed": true,
          "internalType": "address",
          "name": "owner",
          "type": "address"
        },
        {
          "indexed": true,
          "internalType": "address",
          "name": "spender",
          "type": "address"
        },
        {
          "indexed": false,
          "internalType": "uint256",
          "name": "value",
          "type": "uint256"
        }
      ],
      "name": "Approval",
      "type": "event"
    },
    {
      "anonymous": false,
      "inputs": [
        {
          "indexed": true,
          "internalType": "address",
          "name": "previousOwner",
          "type": "address"
        },
        {
          "indexed": true,
          "internalType": "address",
          "name": "newOwner",
          "type": "address"
        }
      ],
      "name": "OwnershipTransferred",
      "type": "event"
    },
    {
      "anonymous": false,
      "inputs": [
        {
          "indexed": false,
          "internalType": "address",
          "name": "account",
          "type": "address"
        }
      ],
      "name": "Paused",
      "type": "event"
    },
    {
      "anonymous": false,
      "inputs": [
        {
          "indexed": true,
          "internalType": "address",
          "name": "from",
          "type": "address"
        },
        {
          "indexed": true,
          "internalType": "address",
          "name": "to",
          "type": "address"
        },
        {
          "indexed": false,
          "internalType": "uint256",
          "name": "value",
          "type": "uint256"
        }
      ],
      "name": "Transfer",
      "type": "event"
    },
    {
      "anonymous": false,
      "inputs": [
        {
          "indexed": false,
          "internalType": "address",
          "name": "account",
          "type": "address"
        }
      ],
      "name": "Unpaused",
      "type": "event"
    },
    {
      "inputs": [],
      "name": "MAX_SUPPLY",
      "outputs": [
        {
          "internalType": "uint256",
          "name": "",
          "type": "uint256"
        }
      ],
      "stateMutability": "view",
      "type": "function"
    },
    {
      "inputs": [
        {
          "internalType": "address",
          "name": "owner",
          "type": "address"
        },
        {
          "internalType": "address",
          "name": "spender",
          "type": "address"
        }
      ],
      "name": "allowance",
      "outputs": [
        {
          "internalType": "uint256",
          "name": "",
          "type": "uint256"
        }
      ],
      "stateMutability": "view",
      "type": "function"
    },
    {
      "inputs": [
        {
          "internalType": "address",
          "name": "spender",
          "type": "address"
        },
        {
          "internalType": "uint256",
          "name": "value",
          "type": "uint256"
        }
      ],
      "name": "approve",
      "outputs": [
        {
          "internalType": "bool",
          "name": "",
          "type": "bool"
        }
      ],
      "stateMutability": "nonpayable",
      "type": "function"
    },
    {
      "inputs": [
        {
          "internalType": "address",
          "name": "account",
          "type": "address"
        }
      ],
      "name": "balanceOf",
      "outputs": [
        {
          "internalType": "uint256",
          "name": "",
          "type": "uint256"
        }
      ],
      "stateMutability": "view",
      "type": "function"
    },
    {
      "inputs": [
        {
          "internalType": "uint256",
          "name": "value",
          "type": "uint256"
        }
      ],
      "name": "burn",
      "outputs": [],
      "stateMutability": "nonpayable",
      "type": "function"
    },
    {
      "inputs": [
        {
          "internalType": "address",
          "name": "account",
          "type": "address"
        },
        {
          "internalType": "uint256",
          "name": "value",
          "type": "uint256"
        }
      ],
      "name": "burnFrom",
      "outputs": [],
      "stateMutability": "nonpayable",
      "type": "function"
    },
    {
      "inputs": [],
      "name": "decimals",
      "outputs": [
        {
          "internalType": "uint8",
          "name": "",
          "type": "uint8"
        }
      ],
      "stateMutability": "view",
      "type": "function"
    },
    {
      "inputs": [
        {
          "internalType": "address",
          "name": "to",
          "type": "address"
        },
        {
          "internalType": "uint256",
          "name": "amount",
          "type": "uint256"
        }
      ],
      "name": "mint",
      "outputs": [],
      "stateMutability": "nonpayable",
      "type": "function"
    },
    {
      "inputs": [],
      "name": "name",
      "outputs": [
        {
          "internalType": "string",
          "name": "",
          "type": "string"
        }
      ],
      "stateMutability": "view",
      "type": "function"
    },
    {
      "inputs": [],
      "name": "owner",
      "outputs": [
        {
          "internalType": "address",
          "name": "",
          "type": "address"
        }
      ],
      "stateMutability": "view",
      "type": "function"
    },
    {
      "inputs": [],
      "name": "pause",
      "outputs": [],
      "stateMutability": "nonpayable",
      "type": "function"
    },
    {
      "inputs": [],
      "name": "paused",
      "outputs": [
        {
          "internalType": "bool",
          "name": "",
          "type": "bool"
        }
      ],
      "stateMutability": "view",
      "type": "function"
    },
    {
      "inputs": [],
      "name": "renounceOwnership",
      "outputs": [],
      "stateMutability": "nonpayable",
      "type": "function"
    },
    {
      "inputs": [],
      "name": "symbol",
      "outputs": [
        {
          "internalType": "string",
          "name": "",
          "type": "string"
        }
      ],
      "stateMutability": "view",
      "type": "function"
    },
    {
      "inputs": [],
      "name": "totalSupply",
      "outputs": [
        {
          "internalType": "uint256",
          "name": "",
          "type": "uint256"
        }
      ],
      "stateMutability": "view",
      "type": "function"
    },
    {
      "inputs": [
        {
          "internalType": "address",
          "name": "to",
          "type": "address"
        },
        {
          "internalType": "uint256",
          "name": "value",
          "type": "uint256"
        }
      ],
      "name": "transfer",
      "outputs": [
        {
          "internalType": "bool",
          "name": "",
          "type": "bool"
        }
      ],
      "stateMutability": "nonpayable",
      "type": "function"
    },
    {
      "inputs": [
        {
          "internalType": "address",
          "name": "from",
          "type": "address"
        },
        {
          "internalType": "address",
          "name": "to",
          "type": "address"
        },
        {
          "internalType": "uint256",
          "name": "value",
          "type": "uint256"
        }
      ],
      "name": "transferFrom",
      "outputs": [
        {
          "internalType": "bool",
          "name": "",
          "type": "bool"
        }
      ],
      "stateMutability": "nonpayable",
      "type": "function"
    },
    {
      "inputs": [
        {
          "internalType": "address",
          "name": "newOwner",
          "type": "address"
        }
      ],
      "name": "transferOwnership",
      "outputs": [],
      "stateMutability": "nonpayable",
      "type": "function"
    },
    {
      "inputs": [],
      "name": "unpause",
      "outputs": [],
      "stateMutability": "nonpayable",
      "type": "function"
    }
  ],
  "bytecode": "0x608060405234801561000f575f5ffd5b50604051610fb2380380610fb283398101604081905261002e916102df565b806040518060400160405280600f81526020016e22b632b6b2b73a30b6102a37b5b2b760891b81525060405180604001604052806004815260200163454c454d60e01b815250816003908161008391906103a3565b50600461009082826103a3565b5050506001600160a01b0381166100c157604051631e4fbdf760e01b81525f60048201526024015b60405180910390fd5b6100ca816100e5565b506100df8169d3c21bcecceda1000000610136565b50610482565b600580546001600160a01b038381166001600160a01b0319831681179093556040519116919082907f8be0079c531659141344cd1fd0a4f28419497f9722a3daafe3b4186f6b6457e0905f90a35050565b6001600160a01b03821661015f5760405163ec442f0560e01b81525f60048201526024016100b8565b61016a5f838361016e565b5050565b610176610186565b6101818383836101b9565b505050565b610199600554600160a01b900460ff1690565b156101b75760405163d93c066560e01b815260040160405180910390fd5b565b6001600160a01b0383166101e3578060025f8282546101d8919061045d565b909155506102539050565b6001600160a01b0383165f90815260208190526040902054818110156102355760405163391434e360e21b81526001600160a01b038516600482015260248101829052604481018390526064016100b8565b6001600160a01b0384165f9081526020819052604090209082900390555b6001600160a01b03821661026f5760028054829003905561028d565b6001600160a01b0382165f9081526020819052604090208054820190555b816001600160a01b0316836001600160a01b03167fddf252ad1be2c89b69c2b068fc378daa952ba7f163c4a11628f55a4df523b3ef836040516102d291815260200190565b60405180910390a3505050565b5f602082840312156102ef575f5ffd5b81516001600160a01b0381168114610305575f5ffd5b9392505050565b634e487b7160e01b5f52604160045260245ffd5b600181811c9082168061033457607f821691505b60208210810361035257634e487b7160e01b5f52602260045260245ffd5b50919050565b601f82111561018157805f5260205f20601f840160051c8101602085101561037d5750805b601f840160051c820191505b8181101561039c575f8155600101610389565b5050505050565b81516001600160401b038111156103bc576103bc61030c565b6103d0816103ca8454610320565b84610358565b6020601f821160018114610402575f83156103eb5750848201515b5f19600385901b1c1916600184901b17845561039c565b5f84815260208120601f198516915b828110156104315787850151825560209485019460019092019101610411565b508482101561044e57868401515f19600387901b60f8161c191681555b50505050600190811b01905550565b8082018082111561047c57634e487b7160e01b5f52601160045260245ffd5b92915050565b610b238061048f5f395ff3fe608060405234801561000f575f5ffd5b506004361061011c575f3560e01c80635c975abb116100a95780638da5cb5b1161006e5780638da5cb5b1461023357806395d89b411461024e578063a9059cbb14610256578063dd62ed3e14610269578063f2fde38b146102a1575f5ffd5b80635c975abb146101d657806370a08231146101e8578063715018a61461021057806379cc6790146102185780638456cb591461022b575f5ffd5b8063313ce567116100ef578063313ce5671461018657806332cb6b0c146101955780633f4ba83a146101a657806340c10f19146101b057806342966c68146101c3575f5ffd5b806306fdde0314610120578063095ea7b31461013e57806318160ddd1461016157806323b872dd14610173575b5f5ffd5b6101286102b4565b604051610135919061097c565b60405180910390f35b61015161014c3660046109cc565b610344565b6040519015158152602001610135565b6002545b604051908152602001610135565b6101516101813660046109f4565b61035d565b60405160128152602001610135565b61016569d3c21bcecceda100000081565b6101ae610380565b005b6101ae6101be3660046109cc565b610392565b6101ae6101d1366004610a2e565b61041a565b600554600160a01b900460ff16610151565b6101656101f6366004610a45565b6001600160a01b03165f9081526020819052604090205490565b6101ae610427565b6101ae6102263660046109cc565b610438565b6101ae61044d565b6005546040516001600160a01b039091168152602001610135565b61012861045d565b6101516102643660046109cc565b61046c565b610165610277366004610a65565b6001600160a01b039182165f90815260016020908152604080832093909416825291909152205490565b6101ae6102af366004610a45565b610479565b6060600380546102c390610a96565b80601f01602080910402602001604051908101604052809291908181526020018280546102ef90610a96565b801561033a5780601f106103115761010080835404028352916020019161033a565b820191905f5260205f20905b81548152906001019060200180831161031d57829003601f168201915b5050505050905090565b5f336103518185856104b3565b60019150505b92915050565b5f3361036a8582856104c5565b610375858585610541565b506001949350505050565b61038861059e565b6103906105cb565b565b61039a61059e565b69d3c21bcecceda1000000816103af60025490565b6103b99190610ace565b111561040c5760405162461bcd60e51b815260206004820152601d60248201527f456c656d546f6b656e3a2065786365656473206d617820737570706c7900000060448201526064015b60405180910390fd5b6104168282610620565b5050565b6104243382610654565b50565b61042f61059e565b6103905f610688565b6104438233836104c5565b6104168282610654565b61045561059e565b6103906106d9565b6060600480546102c390610a96565b5f33610351818585610541565b61048161059e565b6001600160a01b0381166104aa57604051631e4fbdf760e01b81525f6004820152602401610403565b61042481610688565b6104c0838383600161071c565b505050565b6001600160a01b038381165f908152600160209081526040808320938616835292905220545f1981101561053b578181101561052d57604051637dc7a0d960e11b81526001600160a01b03841660048201526024810182905260448101839052606401610403565b61053b84848484035f61071c565b50505050565b6001600160a01b03831661056a57604051634b637e8f60e11b81525f6004820152602401610403565b6001600160a01b0382166105935760405163ec442f0560e01b81525f6004820152602401610403565b6104c08383836107ee565b6005546001600160a01b031633146103905760405163118cdaa760e01b8152336004820152602401610403565b6105d3610801565b6005805460ff60a01b191690557f5db9ee0a495bf2e6ff9c91a7834c1ba4fdd244a5e8aa4e537bd38aeae4b073aa335b6040516001600160a01b03909116815260200160405180910390a1565b6001600160a01b0382166106495760405163ec442f0560e01b81525f6004820152602401610403565b6104165f83836107ee565b6001600160a01b03821661067d57604051634b637e8f60e11b81525f6004820152602401610403565b610416825f836107ee565b600580546001600160a01b038381166001600160a01b0319831681179093556040519116919082907f8be0079c531659141344cd1fd0a4f28419497f9722a3daafe3b4186f6b6457e0905f90a35050565b6106e161082b565b6005805460ff60a01b1916600160a01b1790557f62e78cea01bee320cd4e420270b5ea74000d11b0c9f74754ebdbfc544b05a2586106033390565b6001600160a01b0384166107455760405163e602df0560e01b81525f6004820152602401610403565b6001600160a01b03831661076e57604051634a1406b160e11b81525f6004820152602401610403565b6001600160a01b038085165f908152600160209081526040808320938716835292905220829055801561053b57826001600160a01b0316846001600160a01b03167f8c5be1e5ebec7d5bd14f71427d1e84f3dd0314c0f7b2291e5b200ac8c7c3b925846040516107e091815260200190565b60405180910390a350505050565b6107f661082b565b6104c0838383610856565b600554600160a01b900460ff1661039057604051638dfc202b60e01b815260040160405180910390fd5b600554600160a01b900460ff16156103905760405163d93c066560e01b815260040160405180910390fd5b6001600160a01b038316610880578060025f8282546108759190610ace565b909155506108f09050565b6001600160a01b0383165f90815260208190526040902054818110156108d25760405163391434e360e21b81526001600160a01b03851660048201526024810182905260448101839052606401610403565b6001600160a01b0384165f9081526020819052604090209082900390555b6001600160a01b03821661090c5760028054829003905561092a565b6001600160a01b0382165f9081526020819052604090208054820190555b816001600160a01b0316836001600160a01b03167fddf252ad1be2c89b69c2b068fc378daa952ba7f163c4a11628f55a4df523b3ef8360405161096f91815260200190565b60405180910390a3505050565b602081525f82518060208401528060208501604085015e5f604082850101526040601f19601f83011684010191505092915050565b80356001600160a01b03811681146109c7575f5ffd5b919050565b5f5f604083850312156109dd575f5ffd5b6109e6836109b1565b946020939093013593505050565b5f5f5f60608486031215610a06575f5ffd5b610a0f846109b1565b9250610a1d602085016109b1565b929592945050506040919091013590565b5f60208284031215610a3e575f5ffd5b5035919050565b5f60208284031215610a55575f5ffd5b610a5e826109b1565b9392505050565b5f5f60408385031215610a76575f5ffd5b610a7f836109b1565b9150610a8d602084016109b1565b90509250929050565b600181811c90821680610aaa57607f821691505b602082108103610ac857634e487b7160e01b5f52602260045260245ffd5b50919050565b8082018082111561035757634e487b7160e01b5f52601160045260245ffdfea26469706673582212205d593aaa9ddd1ac83bc1b71ed4bcffca5c1bf1bb3583eb271b2c51287c3e14df64736f6c634300081c0033",
  "linkReferences": {},
  "deployedLinkReferences": {},
  "immutableReferences": {},
  "inputSourceName": "project/contracts/ElemToken.sol",
  "buildInfoId": "solc-0_8_28-d3d57218b3efc22687be71e723081951f12f2263"
}