{
  "_format": "hh3-artifact-1",
  "contractName": "ElemDAO",
  "sourceName": "contracts/ElemDAO.sol",
  "abi": [
    {
      "inputs": [
        {
          "internalType": "address",
          "name": "_elemToken",
          "type": "address"
        },
        {
          "internalType": "address",
          "name": "initialOwner",
          "type": "address"
        }
      ],
      "stateMutability": "nonpayable",
      "type": "constructor"
    },
    {
      "inputs": [
        {
          "internalType": "address",
          "name": "owner",
          "type": "address"
        }
      ],
      "name": "OwnableInvalidOwner",
      "type": "error"
    },
    {
      "inputs": [
        {
          "internalType": "address",
          "name": "account",
          "type": "address"
        }
      ],
      "name": "OwnableUnauthorizedAccount",
      "type": "error"
    },
    {
      "anonymous": false,
      "inputs": [
        {
          "indexed": true,
          "internalType": "address",
          "name": "previousOwner",
          "type": "address"
        },
        {
          "indexed": true,
          "internalType": "address",
          "name": "newOwner",
          "type": "address"
        }
      ],
      "name": "OwnershipTransferred",
      "type": "event"
    },
    {
      "anonymous": false,
      "inputs": [
        {
          "indexed": true,
          "internalType": "uint256",
          "name": "id",
          "type": "uint256"
        },
        {
          "indexed": true,
          "internalType": "address",
          "name": "proposer",
          "type": "address"
        },
        {
          "indexed": false,
          "internalType": "string",
          "name": "description",
          "type": "string"
        }
      ],
      "name": "ProposalCreated",
      "type": "event"
    },
    {
      "anonymous": false,
      "inputs": [
        {
          "indexed": true,
          "internalType": "uint256",
          "name": "id",
          "type": "uint256"
        }
      ],
      "name": "ProposalExecuted",
      "type": "event"
    },
    {
      "anonymous": false,
      "inputs": [
        {
          "indexed": true,
          "internalType": "uint256",
          "name": "proposalId",
          "type": "uint256"
        },
        {
          "indexed": true,
          "internalType": "address",
          "name": "voter",
          "type": "address"
        },
        {
          "indexed": false,
          "internalType": "bool",
          "name": "support",
          "type": "bool"
        },
        {
          "indexed": false,
          "internalType": "uint256",
          "name": "weight",
          "type": "uint256"
        }
      ],
      "name": "Voted",
      "type": "event"
    },
    {
      "inputs": [
        {
          "internalType": "string",
          "name": "description",
          "type": "string"
        }
      ],
      "name": "createProposal",
      "outputs": [
        {
          "internalType": "uint256",
          "name": "",
          "type": "uint256"
        }
      ],
      "stateMutability": "nonpayable",
      "type": "function"
    },
    {
      "inputs": [],
      "name": "elemToken",
      "outputs": [
        {
          "internalType": "contract IERC20",
          "name": "",
          "type": "address"
        }
      ],
      "stateMutability": "view",
      "type": "function"
    },
    {
      "inputs": [
        {
          "internalType": "uint256",
          "name": "proposalId",
          "type": "uint256"
        }
      ],
      "name": "executeProposal",
      "outputs": [],
      "stateMutability": "nonpayable",
      "type": "function"
    },
    {
      "inputs": [
        {
          "internalType": "uint256",
          "name": "",
          "type": "uint256"
        },
        {
          "internalType": "address",
          "name": "",
          "type": "address"
        }
      ],
      "name": "hasVoted",
      "outputs": [
        {
          "internalType": "bool",
          "name": "",
          "type": "bool"
        }
      ],
      "stateMutability": "view",
      "type": "function"
    },
    {
      "inputs": [],
      "name": "owner",
      "outputs": [
        {
          "internalType": "address",
          "name": "",
          "type": "address"
        }
      ],
      "stateMutability": "view",
      "type": "function"
    },
    {
      "inputs": [],
      "name": "proposalCount",
      "outputs": [
        {
          "internalType": "uint256",
          "name": "",
          "type": "uint256"
        }
      ],
      "stateMutability": "view",
      "type": "function"
    },
    {
      "inputs": [
        {
          "internalType": "uint256",
          "name": "",
          "type": "uint256"
        }
      ],
      "name": "proposals",
      "outputs": [
        {
          "internalType": "uint256",
          "name": "id",
          "type": "uint256"
        },
        {
          "internalType": "address",
          "name": "proposer",
          "type": "address"
        },
        {
          "internalType": "string",
          "name": "description",
          "type": "string"
        },
        {
          "internalType": "uint256",
          "name": "forVotes",
          "type": "uint256"
        },
        {
          "internalType": "uint256",
          "name": "againstVotes",
          "type": "uint256"
        },
        {
          "internalType": "uint256",
          "name": "startTime",
          "type": "uint256"
        },
        {
          "internalType": "uint256",
          "name": "endTime",
          "type": "uint256"
        },
        {
          "internalType": "bool",
          "name": "executed",
          "type": "bool"
        }
      ],
      "stateMutability": "view",
      "type": "function"
    },
    {
      "inputs": [],
      "name": "quorumPercentage",
      "outputs": [
        {
          "internalType": "uint256",
          "name": "",
          "type": "uint256"
        }
      ],
      "stateMutability": "view",
      "type": "function"
    },
    {
      "inputs": [],
      "name": "renounceOwnership",
      "outputs": [],
      "stateMutability": "nonpayable",
      "type": "function"
    },
    {
      "inputs": [
        {
          "internalType": "uint256",
          "name": "newQuorum",
          "type": "uint256"
        }
      ],
      "name": "setQuorumPercentage",
      "outputs": [],
      "stateMutability": "nonpayable",
      "type": "function"
    },
    {
      "inputs": [
        {
          "internalType": "uint256",
          "name": "newPeriod",
          "type": "uint256"
        }
      ],
      "name": "setVotingPeriod",
      "outputs": [],
      "stateMutability": "nonpayable",
      "type": "function"
    },
    {
      "inputs": [
        {
          "internalType": "uint256",
          "name": "proposalId",
          "type": "uint256"
        }
      ],
      "name": "state",
      "outputs": [
        {
          "internalType": "enum ElemDAO.ProposalState",
          "name": "",
          "type": "uint8"
        }
      ],
      "stateMutability": "view",
      "type": "function"
    },
    {
      "inputs": [
        {
          "internalType": "address",
          "name": "newOwner",
          "type": "address"
        }
      ],
      "name": "transferOwnership",
      "outputs": [],
      "stateMutability": "nonpayable",
      "type": "function"
    },
    {
      "inputs": [
        {
          "internalType": "uint256",
          "name": "proposalId",
          "type": "uint256"
        },
        {
          "internalType": "bool",
          "name": "support",
          "type": "bool"
        }
      ],
      "name": "vote",
      "outputs": [],
      "stateMutability": "nonpayable",
      "type": "function"
    },
    {
      "inputs": [],
      "name": "votingPeriod",
      "outputs": [
        {
          "internalType": "uint256",
          "name": "",
          "type": "uint256"
        }
      ],
      "stateMutability": "view",
      "type": "function"
    }
  ],
  "bytecode": "0x60a06040526203f480600155600a60025534801561001b575f5ffd5b506040516110da3803806110da83398101604081905261003a916100ee565b806001600160a01b03811661006857604051631e4fbdf760e01b81525f600482015260240160405180910390fd5b61007181610084565b50506001600160a01b031660805261011f565b5f80546001600160a01b038381166001600160a01b0319831681178455604051919092169283917f8be0079c531659141344cd1fd0a4f28419497f9722a3daafe3b4186f6b6457e09190a35050565b80516001600160a01b03811681146100e9575f5ffd5b919050565b5f5f604083850312156100ff575f5ffd5b610108836100d3565b9150610116602084016100d3565b90509250929050565b608051610f8e61014c5f395f81816101550152818161062b01528181610729015261095e0152610f8e5ff3fe608060405234801561000f575f5ffd5b50600436106100f0575f3560e01c806349c2a1a611610093578063c9d27afe11610063578063c9d27afe14610233578063da35c66414610246578063ea0217cf1461024f578063f2fde38b14610262575f5ffd5b806349c2a1a6146101ff5780634fa76ec914610212578063715018a61461021b5780638da5cb5b14610223575f5ffd5b806325db830b116100ce57806325db830b1461015057806332f6a1dc1461018f5780633e4f49e6146101a257806343859632146101c2575f5ffd5b8063013cf08b146100f457806302a251a3146101245780630d61b5191461013b575b5f5ffd5b610107610102366004610b81565b610275565b60405161011b989796959493929190610b98565b60405180910390f35b61012d60015481565b60405190815260200161011b565b61014e610149366004610b81565b610349565b005b6101777f000000000000000000000000000000000000000000000000000000000000000081565b6040516001600160a01b03909116815260200161011b565b61014e61019d366004610b81565b6104a6565b6101b56101b0366004610b81565b6104fa565b60405161011b9190610c21565b6101ef6101d0366004610c62565b600560209081525f928352604080842090915290825290205460ff1681565b604051901515815260200161011b565b61012d61020d366004610c8c565b610708565b61012d60025481565b61014e610881565b5f546001600160a01b0316610177565b61014e610241366004610cfa565b610894565b61012d60035481565b61014e61025d366004610b81565b610abc565b61014e610270366004610d2c565b610ac9565b60046020525f908152604090208054600182015460028301805492936001600160a01b03909216926102a690610d4c565b80601f01602080910402602001604051908101604052809291908181526020018280546102d290610d4c565b801561031d5780601f106102f45761010080835404028352916020019161031d565b820191905f5260205f20905b81548152906001019060200180831161030057829003601f168201915b505050600384015460048501546005860154600687015460079097015495969295919450925060ff1688565b6001610354826104fa565b600381111561036557610365610c0d565b146103ab5760405162461bcd60e51b8152602060048201526011602482015270111053ce881b9bdd08185c1c1c9bdd9959607a1b60448201526064015b60405180910390fd5b5f818152600460205260409020600781015460ff16156104055760405162461bcd60e51b8152602060048201526015602482015274111053ce88185b1c9958591e48195e1958dd5d1959605a1b60448201526064016103a2565b60018101546001600160a01b031633148061042957505f546001600160a01b031633145b6104695760405162461bcd60e51b8152602060048201526011602482015270111053ce881d5b985d5d1a1bdc9a5e9959607a1b60448201526064016103a2565b60078101805460ff1916600117905560405182907f712ae1383f79ac853f8d882153778e0260ef8f03b504e2866e0593e04d2b291f905f90a25050565b6104ae610b06565b60648111156104f55760405162461bcd60e51b815260206004820152601360248201527244414f3a20696e76616c69642071756f72756d60681b60448201526064016103a2565b600255565b5f8181526004602090815260408083208151610100810183528154815260018201546001600160a01b0316938101939093526002810180548594938401919061054290610d4c565b80601f016020809104026020016040519081016040528092919081815260200182805461056e90610d4c565b80156105b95780601f10610590576101008083540402835291602001916105b9565b820191905f5260205f20905b81548152906001019060200180831161059c57829003601f168201915b50505091835250506003820154602082015260048201546040820152600582015460608201526006820154608082015260079091015460ff16151560a09091015260e0810151909150156106105750600392915050565b8060c00151421161062357505f92915050565b5f60646002547f00000000000000000000000000000000000000000000000000000000000000006001600160a01b03166318160ddd6040518163ffffffff1660e01b8152600401602060405180830381865afa158015610685573d5f5f3e3d5ffd5b505050506040513d601f19601f820116820180604052508101906106a99190610d84565b6106b39190610daf565b6106bd9190610dc6565b90505f826080015183606001516106d49190610de5565b90508181101580156106ed575082608001518360600151115b156106fd57506001949350505050565b506002949350505050565b6040516370a0823160e01b81523360048201525f9081906001600160a01b037f000000000000000000000000000000000000000000000000000000000000000016906370a0823190602401602060405180830381865afa15801561076e573d5f5f3e3d5ffd5b505050506040513d601f19601f820116820180604052508101906107929190610d84565b116107d55760405162461bcd60e51b815260206004820152601360248201527244414f3a206d75737420686f6c6420454c454d60681b60448201526064016103a2565b600380545f91826107e583610df8565b909155505f8181526004602052604090208181556001810180546001600160a01b031916331790559091506002810161081f858783610e70565b50426005820181905560015461083491610de5565b6006820155604051339083907f7585f467599d0f008985f231af99293be388626ac16ca59505c2f8f88969cd639061086f9089908990610f2a565b60405180910390a35090505b92915050565b610889610b06565b6108925f610b32565b565b5f82815260046020526040902060068101544211156108e95760405162461bcd60e51b8152602060048201526011602482015270111053ce881d9bdd1a5b99c8195b991959607a1b60448201526064016103a2565b5f83815260056020908152604080832033845290915290205460ff16156109475760405162461bcd60e51b8152602060048201526012602482015271111053ce88185b1c9958591e481d9bdd195960721b60448201526064016103a2565b6040516370a0823160e01b81523360048201525f907f00000000000000000000000000000000000000000000000000000000000000006001600160a01b0316906370a0823190602401602060405180830381865afa1580156109ab573d5f5f3e3d5ffd5b505050506040513d601f19601f820116820180604052508101906109cf9190610d84565b90505f8111610a175760405162461bcd60e51b81526020600482015260146024820152732220a79d103737903b37ba34b733903837bbb2b960611b60448201526064016103a2565b5f8481526005602090815260408083203384529091529020805460ff191660011790558215610a5e5780826003015f828254610a539190610de5565b90915550610a779050565b80826004015f828254610a719190610de5565b90915550505b60408051841515815260208101839052339186917f7c2de587c00d75474a0c6c6fa96fd3b45dc974cd4e8a75f712bb84c950dce1b5910160405180910390a350505050565b610ac4610b06565b600155565b610ad1610b06565b6001600160a01b038116610afa57604051631e4fbdf760e01b81525f60048201526024016103a2565b610b0381610b32565b50565b5f546001600160a01b031633146108925760405163118cdaa760e01b81523360048201526024016103a2565b5f80546001600160a01b038381166001600160a01b0319831681178455604051919092169283917f8be0079c531659141344cd1fd0a4f28419497f9722a3daafe3b4186f6b6457e09190a35050565b5f60208284031215610b91575f5ffd5b5035919050565b88815260018060a01b038816602082015261010060408201525f8751806101008401528060208a0161012085015e5f6101208285010152610120601f19601f8301168401019150508660608301528560808301528460a08301528360c083015282151560e08301529998505050505050505050565b634e487b7160e01b5f52602160045260245ffd5b6020810160048310610c4157634e487b7160e01b5f52602160045260245ffd5b91905290565b80356001600160a01b0381168114610c5d575f5ffd5b919050565b5f5f60408385031215610c73575f5ffd5b82359150610c8360208401610c47565b90509250929050565b5f5f60208385031215610c9d575f5ffd5b823567ffffffffffffffff811115610cb3575f5ffd5b8301601f81018513610cc3575f5ffd5b803567ffffffffffffffff811115610cd9575f5ffd5b856020828401011115610cea575f5ffd5b6020919091019590945092505050565b5f5f60408385031215610d0b575f5ffd5b8235915060208301358015158114610d21575f5ffd5b809150509250929050565b5f60208284031215610d3c575f5ffd5b610d4582610c47565b9392505050565b600181811c90821680610d6057607f821691505b602082108103610d7e57634e487b7160e01b5f52602260045260245ffd5b50919050565b5f60208284031215610d94575f5ffd5b5051919050565b634e487b7160e01b5f52601160045260245ffd5b808202811582820484141761087b5761087b610d9b565b5f82610de057634e487b7160e01b5f52601260045260245ffd5b500490565b8082018082111561087b5761087b610d9b565b5f60018201610e0957610e09610d9b565b5060010190565b634e487b7160e01b5f52604160045260245ffd5b601f821115610e6b57805f5260205f20601f840160051c81016020851015610e495750805b601f840160051c820191505b81811015610e68575f8155600101610e55565b50505b505050565b67ffffffffffffffff831115610e8857610e88610e10565b610e9c83610e968354610d4c565b83610e24565b5f601f841160018114610ecd575f8515610eb65750838201355b5f19600387901b1c1916600186901b178355610e68565b5f83815260208120601f198716915b82811015610efc5786850135825560209485019460019092019101610edc565b5086821015610f18575f1960f88860031b161c19848701351681555b505060018560011b0183555050505050565b60208152816020820152818360408301375f818301604090810191909152601f909201601f1916010191905056fea2646970667358221220d71e1fa872fec333276232d4587443633aabf973f23b4288762bbb37843ddbd764736f6c634300081c0033",
  "linkReferences": {},
  "deployedLinkReferences": {},
  "immutableReferences": {
    "265": [
      {
        "length": 32,
        "start": 341
      },
      {
        "length": 32,
        "start": 1579
      },
      {
        "length": 32,
        "start": 1833
      },
      {
        "length": 32,
        "start": 2398
      }
    ]
  },
  "inputSourceName": "project/contracts/ElemDAO.sol",
  "buildInfoId": "solc-0_8_28-f4ce4f4c0f33cba705426947675455d4779fc1a2"
}