{
  "_format": "hh3-artifact-1",
  "contractName": "ElemNFT",
  "sourceName": "contracts/ElemNFT.sol",
  "abi": [
    {
      "inputs": [
        {
          "internalType": "address",
          "name": "initialOwner",
          "type": "address"
        }
      ],
      "stateMutability": "nonpayable",
      "type": "constructor"
    },
    {
      "inputs": [],
      "name": "ERC721EnumerableForbiddenBatchMint",
      "type": "error"
    },
    {
      "inputs": [
        {
          "internalType": "address",
          "name": "sender",
          "type": "address"
        },
        {
          "internalType": "uint256",
          "name": "tokenId",
          "type": "uint256"
        },
        {
          "internalType": "address",
          "name": "owner",
          "type": "address"
        }
      ],
      "name": "ERC721IncorrectOwner",
      "type": "error"
    },
    {
      "inputs": [
        {
          "internalType": "address",
          "name": "operator",
          "type": "address"
        },
        {
          "internalType": "uint256",
          "name": "tokenId",
          "type": "uint256"
        }
      ],
      "name": "ERC721InsufficientApproval",
      "type": "error"
    },
    {
      "inputs": [
        {
          "internalType": "address",
          "name": "approver",
          "type": "address"
        }
      ],
      "name": "ERC721InvalidApprover",
      "type": "error"
    },
    {
      "inputs": [
        {
          "internalType": "address",
          "name": "operator",
          "type": "address"
        }
      ],
      "name": "ERC721InvalidOperator",
      "type": "error"
    },
    {
      "inputs": [
        {
          "internalType": "address",
          "name": "owner",
          "type": "address"
        }
      ],
      "name": "ERC721InvalidOwner",
      "type": "error"
    },
    {
      "inputs": [
        {
          "internalType": "address",
          "name": "receiver",
          "type": "address"
        }
      ],
      "name": "ERC721InvalidReceiver",
      "type": "error"
    },
    {
      "inputs": [
        {
          "internalType": "address",
          "name": "sender",
          "type": "address"
        }
      ],
      "name": "ERC721InvalidSender",
      "type": "error"
    },
    {
      "inputs": [
        {
          "internalType": "uint256",
          "name": "tokenId",
          "type": "uint256"
        }
      ],
      "name": "ERC721NonexistentToken",
      "type": "error"
    },
    {
      "inputs": [
        {
          "internalType": "address",
          "name": "owner",
          "type": "address"
        },
        {
          "internalType": "uint256",
          "name": "index",
          "type": "uint256"
        }
      ],
      "name": "ERC721OutOfBoundsIndex",
      "type": "error"
    },
    {
      "inputs": [
        {
          "internalType": "address",
          "name": "owner",
          "type": "address"
        }
      ],
      "name": "OwnableInvalidOwner",
      "type": "error"
    },
    {
      "inputs": [
        {
          "internalType": "address",
          "name": "account",
          "type": "address"
        }
      ],
      "name": "OwnableUnauthorizedAccount",
      "type": "error"
    },
    {
      "anonymous": false,
      "inputs": [
        {
          "indexed": true,
          "internalType": "address",
          "name": "owner",
          "type": "address"
        },
        {
          "indexed": true,
          "internalType": "address",
          "name": "approved",
          "type": "address"
        },
        {
          "indexed": true,
          "internalType": "uint256",
          "name": "tokenId",
          "type": "uint256"
        }
      ],
      "name": "Approval",
      "type": "event"
    },
    {
      "anonymous": false,
      "inputs": [
        {
          "indexed": true,
          "internalType": "address",
          "name": "owner",
          "type": "address"
        },
        {
          "indexed": true,
          "internalType": "address",
          "name": "operator",
          "type": "address"
        },
        {
          "indexed": false,
          "internalType": "bool",
          "name": "approved",
          "type": "bool"
        }
      ],
      "name": "ApprovalForAll",
      "type": "event"
    },
    {
      "anonymous": false,
      "inputs": [
        {
          "indexed": false,
          "internalType": "uint256",
          "name": "_fromTokenId",
          "type": "uint256"
        },
        {
          "indexed": false,
          "internalType": "uint256",
          "name": "_toTokenId",
          "type": "uint256"
        }
      ],
      "name": "BatchMetadataUpdate",
      "type": "event"
    },
    {
      "anonymous": false,
      "inputs": [
        {
          "indexed": false,
          "internalType": "uint256",
          "name": "_tokenId",
          "type": "uint256"
        }
      ],
      "name": "MetadataUpdate",
      "type": "event"
    },
    {
      "anonymous": false,
      "inputs": [
        {
          "indexed": true,
          "internalType": "address",
          "name": "to",
          "type": "address"
        },
        {
          "indexed": true,
          "internalType": "uint256",
          "name": "tokenId",
          "type": "uint256"
        },
        {
          "indexed": false,
          "internalType": "string",
          "name": "name",
          "type": "string"
        }
      ],
      "name": "NFTMinted",
      "type": "event"
    },
    {
      "anonymous": false,
      "inputs": [
        {
          "indexed": true,
          "internalType": "address",
          "name": "previousOwner",
          "type": "address"
        },
        {
          "indexed": true,
          "internalType": "address",
          "name": "newOwner",
          "type": "address"
        }
      ],
      "name": "OwnershipTransferred",
      "type": "event"
    },
    {
      "anonymous": false,
      "inputs": [
        {
          "indexed": true,
          "internalType": "address",
          "name": "from",
          "type": "address"
        },
        {
          "indexed": true,
          "internalType": "address",
          "name": "to",
          "type": "address"
        },
        {
          "indexed": true,
          "internalType": "uint256",
          "name": "tokenId",
          "type": "uint256"
        }
      ],
      "name": "Transfer",
      "type": "event"
    },
    {
      "inputs": [],
      "name": "MAX_SUPPLY",
      "outputs": [
        {
          "internalType": "uint256",
          "name": "",
          "type": "uint256"
        }
      ],
      "stateMutability": "view",
      "type": "function"
    },
    {
      "inputs": [
        {
          "internalType": "address",
          "name": "to",
          "type": "address"
        },
        {
          "internalType": "uint256",
          "name": "tokenId",
          "type": "uint256"
        }
      ],
      "name": "approve",
      "outputs": [],
      "stateMutability": "nonpayable",
      "type": "function"
    },
    {
      "inputs": [
        {
          "internalType": "address",
          "name": "owner",
          "type": "address"
        }
      ],
      "name": "balanceOf",
      "outputs": [
        {
          "internalType": "uint256",
          "name": "",
          "type": "uint256"
        }
      ],
      "stateMutability": "view",
      "type": "function"
    },
    {
      "inputs": [
        {
          "internalType": "uint256",
          "name": "tokenId",
          "type": "uint256"
        }
      ],
      "name": "creatureName",
      "outputs": [
        {
          "internalType": "string",
          "name": "",
          "type": "string"
        }
      ],
      "stateMutability": "view",
      "type": "function"
    },
    {
      "inputs": [
        {
          "internalType": "uint256",
          "name": "tokenId",
          "type": "uint256"
        }
      ],
      "name": "getApproved",
      "outputs": [
        {
          "internalType": "address",
          "name": "",
          "type": "address"
        }
      ],
      "stateMutability": "view",
      "type": "function"
    },
    {
      "inputs": [
        {
          "internalType": "address",
          "name": "owner",
          "type": "address"
        },
        {
          "internalType": "address",
          "name": "operator",
          "type": "address"
        }
      ],
      "name": "isApprovedForAll",
      "outputs": [
        {
          "internalType": "bool",
          "name": "",
          "type": "bool"
        }
      ],
      "stateMutability": "view",
      "type": "function"
    },
    {
      "inputs": [
        {
          "internalType": "string",
          "name": "uri",
          "type": "string"
        }
      ],
      "name": "mint",
      "outputs": [],
      "stateMutability": "payable",
      "type": "function"
    },
    {
      "inputs": [],
      "name": "mintPrice",
      "outputs": [
        {
          "internalType": "uint256",
          "name": "",
          "type": "uint256"
        }
      ],
      "stateMutability": "view",
      "type": "function"
    },
    {
      "inputs": [],
      "name": "name",
      "outputs": [
        {
          "internalType": "string",
          "name": "",
          "type": "string"
        }
      ],
      "stateMutability": "view",
      "type": "function"
    },
    {
      "inputs": [],
      "name": "owner",
      "outputs": [
        {
          "internalType": "address",
          "name": "",
          "type": "address"
        }
      ],
      "stateMutability": "view",
      "type": "function"
    },
    {
      "inputs": [
        {
          "internalType": "uint256",
          "name": "tokenId",
          "type": "uint256"
        }
      ],
      "name": "ownerOf",
      "outputs": [
        {
          "internalType": "address",
          "name": "",
          "type": "address"
        }
      ],
      "stateMutability": "view",
      "type": "function"
    },
    {
      "inputs": [],
      "name": "renounceOwnership",
      "outputs": [],
      "stateMutability": "nonpayable",
      "type": "function"
    },
    {
      "inputs": [
        {
          "internalType": "address",
          "name": "from",
          "type": "address"
        },
        {
          "internalType": "address",
          "name": "to",
          "type": "address"
        },
        {
          "internalType": "uint256",
          "name": "tokenId",
          "type": "uint256"
        }
      ],
      "name": "safeTransferFrom",
      "outputs": [],
      "stateMutability": "nonpayable",
      "type": "function"
    },
    {
      "inputs": [
        {
          "internalType": "address",
          "name": "from",
          "type": "address"
        },
        {
          "internalType": "address",
          "name": "to",
          "type": "address"
        },
        {
          "internalType": "uint256",
          "name": "tokenId",
          "type": "uint256"
        },
        {
          "internalType": "bytes",
          "name": "data",
          "type": "bytes"
        }
      ],
      "name": "safeTransferFrom",
      "outputs": [],
      "stateMutability": "nonpayable",
      "type": "function"
    },
    {
      "inputs": [
        {
          "internalType": "address",
          "name": "operator",
          "type": "address"
        },
        {
          "internalType": "bool",
          "name": "approved",
          "type": "bool"
        }
      ],
      "name": "setApprovalForAll",
      "outputs": [],
      "stateMutability": "nonpayable",
      "type": "function"
    },
    {
      "inputs": [
        {
          "internalType": "uint256",
          "name": "newPrice",
          "type": "uint256"
        }
      ],
      "name": "setMintPrice",
      "outputs": [],
      "stateMutability": "nonpayable",
      "type": "function"
    },
    {
      "inputs": [
        {
          "internalType": "bytes4",
          "name": "interfaceId",
          "type": "bytes4"
        }
      ],
      "name": "supportsInterface",
      "outputs": [
        {
          "internalType": "bool",
          "name": "",
          "type": "bool"
        }
      ],
      "stateMutability": "view",
      "type": "function"
    },
    {
      "inputs": [],
      "name": "symbol",
      "outputs": [
        {
          "internalType": "string",
          "name": "",
          "type": "string"
        }
      ],
      "stateMutability": "view",
      "type": "function"
    },
    {
      "inputs": [
        {
          "internalType": "uint256",
          "name": "index",
          "type": "uint256"
        }
      ],
      "name": "tokenByIndex",
      "outputs": [
        {
          "internalType": "uint256",
          "name": "",
          "type": "uint256"
        }
      ],
      "stateMutability": "view",
      "type": "function"
    },
    {
      "inputs": [
        {
          "internalType": "address",
          "name": "owner",
          "type": "address"
        },
        {
          "internalType": "uint256",
          "name": "index",
          "type": "uint256"
        }
      ],
      "name": "tokenOfOwnerByIndex",
      "outputs": [
        {
          "internalType": "uint256",
          "name": "",
          "type": "uint256"
        }
      ],
      "stateMutability": "view",
      "type": "function"
    },
    {
      "inputs": [
        {
          "internalType": "uint256",
          "name": "tokenId",
          "type": "uint256"
        }
      ],
      "name": "tokenURI",
      "outputs": [
        {
          "internalType": "string",
          "name": "",
          "type": "string"
        }
      ],
      "stateMutability": "view",
      "type": "function"
    },
    {
      "inputs": [],
      "name": "totalSupply",
      "outputs": [
        {
          "internalType": "uint256",
          "name": "",
          "type": "uint256"
        }
      ],
      "stateMutability": "view",
      "type": "function"
    },
    {
      "inputs": [
        {
          "internalType": "address",
          "name": "from",
          "type": "address"
        },
        {
          "internalType": "address",
          "name": "to",
          "type": "address"
        },
        {
          "internalType": "uint256",
          "name": "tokenId",
          "type": "uint256"
        }
      ],
      "name": "transferFrom",
      "outputs": [],
      "stateMutability": "nonpayable",
      "type": "function"
    },
    {
      "inputs": [
        {
          "internalType": "address",
          "name": "newOwner",
          "type": "address"
        }
      ],
      "name": "transferOwnership",
      "outputs": [],
      "stateMutability": "nonpayable",
      "type": "function"
    },
    {
      "inputs": [],
      "name": "withdraw",
      "outputs": [],
      "stateMutability": "nonpayable",
      "type": "function"
    }
  ],
  "bytecode": "0x662386f26fc10000600c908155600e6101c08181526d119a5c9948115b195b595b9d185b60921b6101e05260809081526102009283526b15d85d195c8814dc1a5c9a5d60a21b6102205260a092909252600b6102408181526a456172746820476f6c656d60a81b6102605260c0526102808281526d131a59da1d1b9a5b99c8109bdb1d60921b6102a05260e0526102c08281526d536861646f77205068616e746f6d60901b6102e052610100526103008181526a4372797374616c2047656d60a81b61032052610120526103408181526a536f6c617220466c61726560a81b61036052610140526103808181526a546f78696320536c696d6560a81b6103a052610160526103c09081526a119c9bdcdd0814da185c9960aa1b6103e05261018052610440604052600a610400818152694d61676d6120436f726560b01b610420526101a05261014e929061027b565b5034801561015a575f5ffd5b506040516120bf3803806120bf8339810160408190526101799161032e565b806040518060400160405280601381526020017f456c656d656e74616c2043726561747572657300000000000000000000000000815250604051806040016040528060068152602001651150d490519560d21b815250815f90816101dd91906103f3565b5060016101ea82826103f3565b5050506001600160a01b03811661021a57604051631e4fbdf760e01b81525f600482015260240160405180910390fd5b6102238161022a565b50506104ad565b600b80546001600160a01b038381166001600160a01b0319831681179093556040519116919082907f8be0079c531659141344cd1fd0a4f28419497f9722a3daafe3b4186f6b6457e0905f90a35050565b82600a81019282156102b4579160200282015b828111156102b457825182906102a490826103f3565b509160200191906001019061028e565b506102c09291506102c4565b5090565b808211156102c0575f6102d782826102e0565b506001016102c4565b5080546102ec9061036f565b5f825580601f106102fb575050565b601f0160209004905f5260205f2090810190610317919061031a565b50565b5b808211156102c0575f815560010161031b565b5f6020828403121561033e575f5ffd5b81516001600160a01b0381168114610354575f5ffd5b9392505050565b634e487b7160e01b5f52604160045260245ffd5b600181811c9082168061038357607f821691505b6020821081036103a157634e487b7160e01b5f52602260045260245ffd5b50919050565b601f8211156103ee57805f5260205f20601f840160051c810160208510156103cc5750805b601f840160051c820191505b818110156103eb575f81556001016103d8565b50505b505050565b81516001600160401b0381111561040c5761040c61035b565b6104208161041a845461036f565b846103a7565b6020601f821160018114610452575f831561043b5750848201515b5f19600385901b1c1916600184901b1784556103eb565b5f84815260208120601f198516915b828110156104815787850151825560209485019460019092019101610461565b508482101561049e57868401515f19600387901b60f8161c191681555b50505050600190811b01905550565b611c05806104ba5f395ff3fe608060405260043610610161575f3560e01c80636352211e116100cd578063a22cb46511610087578063d85d3d2711610062578063d85d3d27146103e8578063e985e9c5146103fb578063f2fde38b1461041a578063f4a0a52814610439575f5ffd5b8063a22cb4651461038b578063b88d4fde146103aa578063c87b56dd146103c9575f5ffd5b80636352211e146102f35780636817c76c1461031257806370a0823114610327578063715018a6146103465780638da5cb5b1461035a57806395d89b4114610377575f5ffd5b806323b872dd1161011e57806323b872dd1461024f5780632f745c591461026e57806332cb6b0c1461028d5780633ccfd60b146102a157806342842e0e146102b55780634f6ccce7146102d4575f5ffd5b806301ffc9a714610165578063042482ee1461019957806306fdde03146101c5578063081812fc146101d9578063095ea7b31461021057806318160ddd14610231575b5f5ffd5b348015610170575f5ffd5b5061018461017f366004611657565b610458565b60405190151581526020015b60405180910390f35b3480156101a4575f5ffd5b506101b86101b3366004611672565b610468565b60405161019091906116b7565b3480156101d0575f5ffd5b506101b8610561565b3480156101e4575f5ffd5b506101f86101f3366004611672565b6105f0565b6040516001600160a01b039091168152602001610190565b34801561021b575f5ffd5b5061022f61022a3660046116e4565b610617565b005b34801561023c575f5ffd5b506008545b604051908152602001610190565b34801561025a575f5ffd5b5061022f61026936600461170c565b610626565b348015610279575f5ffd5b506102416102883660046116e4565b6106af565b348015610298575f5ffd5b50610241600a81565b3480156102ac575f5ffd5b5061022f610712565b3480156102c0575f5ffd5b5061022f6102cf36600461170c565b6107cd565b3480156102df575f5ffd5b506102416102ee366004611672565b6107ec565b3480156102fe575f5ffd5b506101f861030d366004611672565b610841565b34801561031d575f5ffd5b50610241600c5481565b348015610332575f5ffd5b50610241610341366004611746565b61084b565b348015610351575f5ffd5b5061022f610890565b348015610365575f5ffd5b50600b546001600160a01b03166101f8565b348015610382575f5ffd5b506101b86108a3565b348015610396575f5ffd5b5061022f6103a536600461175f565b6108b2565b3480156103b5575f5ffd5b5061022f6103c43660046117ac565b6108bd565b3480156103d4575f5ffd5b506101b86103e3366004611672565b6108d5565b61022f6103f6366004611889565b6108e0565b348015610406575f5ffd5b506101846104153660046118f7565b610a34565b348015610425575f5ffd5b5061022f610434366004611746565b610a61565b348015610444575f5ffd5b5061022f610453366004611672565b610a9b565b5f61046282610aa8565b92915050565b6060600a82106104bf5760405162461bcd60e51b815260206004820152601860248201527f456c656d4e46543a20696e76616c696420746f6b656e4964000000000000000060448201526064015b60405180910390fd5b600e82600a81106104d2576104d2611928565b0180546104de9061193c565b80601f016020809104026020016040519081016040528092919081815260200182805461050a9061193c565b80156105555780601f1061052c57610100808354040283529160200191610555565b820191905f5260205f20905b81548152906001019060200180831161053857829003601f168201915b50505050509050919050565b60605f805461056f9061193c565b80601f016020809104026020016040519081016040528092919081815260200182805461059b9061193c565b80156105e65780601f106105bd576101008083540402835291602001916105e6565b820191905f5260205f20905b8154815290600101906020018083116105c957829003601f168201915b5050505050905090565b5f6105fa82610acc565b505f828152600460205260409020546001600160a01b0316610462565b610622828233610b04565b5050565b6001600160a01b03821661064f57604051633250574960e11b81525f60048201526024016104b6565b5f61065b838333610b11565b9050836001600160a01b0316816001600160a01b0316146106a9576040516364283d7b60e01b81526001600160a01b03808616600483015260248201849052821660448201526064016104b6565b50505050565b5f6106b98361084b565b82106106ea5760405163295f44f760e21b81526001600160a01b0384166004820152602481018390526044016104b6565b506001600160a01b03919091165f908152600660209081526040808320938352929052205490565b61071a610b25565b5f61072d600b546001600160a01b031690565b6001600160a01b0316476040515f6040518083038185875af1925050503d805f8114610774576040519150601f19603f3d011682016040523d82523d5f602084013e610779565b606091505b50509050806107ca5760405162461bcd60e51b815260206004820152601860248201527f456c656d4e46543a207769746864726177206661696c6564000000000000000060448201526064016104b6565b50565b6107e783838360405180602001604052805f8152506108bd565b505050565b5f6107f660085490565b821061081e5760405163295f44f760e21b81525f6004820152602481018390526044016104b6565b6008828154811061083157610831611928565b905f5260205f2001549050919050565b5f61046282610acc565b5f6001600160a01b038216610875576040516322718ad960e21b81525f60048201526024016104b6565b506001600160a01b03165f9081526003602052604090205490565b610898610b25565b6108a15f610b52565b565b60606001805461056f9061193c565b610622338383610ba3565b6108c8848484610626565b6106a93385858585610c62565b606061046282610d8a565b600a600d54106109325760405162461bcd60e51b815260206004820152601860248201527f456c656d4e46543a20616c6c204e465473206d696e746564000000000000000060448201526064016104b6565b600c543410156109845760405162461bcd60e51b815260206004820152601960248201527f456c656d4e46543a20696e73756666696369656e74204554480000000000000060448201526064016104b6565b600d80549081905f61099583611988565b91905055506109a43382610e03565b6109e38184848080601f0160208091040260200160405190810160405280939291908181526020018383808284375f92019190915250610e1c92505050565b80337fd35bb95e09c04b219e35047ce7b7b300e3384264ef84a40456943dbc0fc17c14600e83600a8110610a1957610a19611928565b01604051610a2791906119a0565b60405180910390a3505050565b6001600160a01b039182165f90815260056020908152604080832093909416825291909152205460ff1690565b610a69610b25565b6001600160a01b038116610a9257604051631e4fbdf760e01b81525f60048201526024016104b6565b6107ca81610b52565b610aa3610b25565b600c55565b5f6001600160e01b03198216632483248360e11b1480610462575061046282610e6b565b5f818152600260205260408120546001600160a01b03168061046257604051637e27328960e01b8152600481018490526024016104b6565b6107e78383836001610e8f565b5f610b1d848484610f93565b949350505050565b600b546001600160a01b031633146108a15760405163118cdaa760e01b81523360048201526024016104b6565b600b80546001600160a01b038381166001600160a01b0319831681179093556040519116919082907f8be0079c531659141344cd1fd0a4f28419497f9722a3daafe3b4186f6b6457e0905f90a35050565b6001600160a01b038316610bcc5760405163a9fbf51f60e01b81525f60048201526024016104b6565b6001600160a01b038216610bfe57604051630b61174360e31b81526001600160a01b03831660048201526024016104b6565b6001600160a01b038381165f81815260056020908152604080832094871680845294825291829020805460ff191686151590811790915591519182527f17307eab39ab6107e8899845ad3d59bd9653f200f220920489ca2b5937696c319101610a27565b6001600160a01b0383163b15610d8357604051630a85bd0160e11b81526001600160a01b0384169063150b7a0290610ca4908890889087908790600401611a27565b6020604051808303815f875af1925050508015610cde575060408051601f3d908101601f19168201909252610cdb91810190611a63565b60015b610d45573d808015610d0b576040519150601f19603f3d011682016040523d82523d5f602084013e610d10565b606091505b5080515f03610d3d57604051633250574960e11b81526001600160a01b03851660048201526024016104b6565b805160208201fd5b6001600160e01b03198116630a85bd0160e11b14610d8157604051633250574960e11b81526001600160a01b03851660048201526024016104b6565b505b5050505050565b6060610d9582610acc565b505f610dab60408051602081019091525f815290565b90505f610db78461105e565b905081515f03610dc8579392505050565b805115610dfa578181604051602001610de2929190611a95565b60405160208183030381529060405292505050919050565b610b1d8461107a565b610622828260405180602001604052805f8152506110eb565b5f828152600a60205260409020610e338282611aed565b506040518281527ff8e1a15aba9398e019f0b49df1a4fde98ee17ae345cb5f6b5e2c27f5033e8ce79060200160405180910390a15050565b5f6001600160e01b0319821663780e9d6360e01b1480610462575061046282611102565b8080610ea357506001600160a01b03821615155b15610f64575f610eb284610acc565b90506001600160a01b03831615801590610ede5750826001600160a01b0316816001600160a01b031614155b8015610ef15750610eef8184610a34565b155b15610f1a5760405163a9fbf51f60e01b81526001600160a01b03841660048201526024016104b6565b8115610f625783856001600160a01b0316826001600160a01b03167f8c5be1e5ebec7d5bd14f71427d1e84f3dd0314c0f7b2291e5b200ac8c7c3b92560405160405180910390a45b505b50505f90815260046020526040902080546001600160a01b0319166001600160a01b0392909216919091179055565b5f5f610fa0858585611151565b90506001600160a01b038116610ffc57610ff784600880545f838152600960205260408120829055600182018355919091527ff3f7a9fe364faab93b216da50a3214154f22a0a2b415b23a84c8169e8b636ee30155565b61101f565b846001600160a01b0316816001600160a01b03161461101f5761101f8185611243565b6001600160a01b03851661103b57611036846112c0565b610b1d565b846001600160a01b0316816001600160a01b031614610b1d57610b1d8585611367565b5f818152600a602052604090208054606091906104de9061193c565b606061108582610acc565b505f61109b60408051602081019091525f815290565b90505f8151116110b95760405180602001604052805f8152506110e4565b806110c3846113b5565b6040516020016110d4929190611a95565b6040516020818303038152906040525b9392505050565b6110f58383611445565b6107e7335f858585610c62565b5f6001600160e01b031982166380ac58cd60e01b148061113257506001600160e01b03198216635b5e139f60e01b145b8061046257506301ffc9a760e01b6001600160e01b0319831614610462565b5f828152600260205260408120546001600160a01b039081169083161561117d5761117d8184866114a6565b6001600160a01b038116156111b7576111985f855f5f610e8f565b6001600160a01b0381165f90815260036020526040902080545f190190555b6001600160a01b038516156111e5576001600160a01b0385165f908152600360205260409020805460010190555b5f8481526002602052604080822080546001600160a01b0319166001600160a01b0389811691821790925591518793918516917fddf252ad1be2c89b69c2b068fc378daa952ba7f163c4a11628f55a4df523b3ef91a4949350505050565b5f61124d8361084b565b5f838152600760209081526040808320546001600160a01b03881684526006909252909120919250908183146112a2575f83815260208281526040808320548584528184208190558352600790915290208290555b5f938452600760209081526040808620869055938552525081205550565b6008545f906112d190600190611ba8565b5f83815260096020526040812054600880549394509092849081106112f8576112f8611928565b905f5260205f2001549050806008838154811061131757611317611928565b5f91825260208083209091019290925582815260099091526040808220849055858252812055600880548061134e5761134e611bbb565b600190038181905f5260205f20015f9055905550505050565b5f60016113738461084b565b61137d9190611ba8565b6001600160a01b039093165f908152600660209081526040808320868452825280832085905593825260079052919091209190915550565b60605f6113c18361150a565b60010190505f8167ffffffffffffffff8111156113e0576113e0611798565b6040519080825280601f01601f19166020018201604052801561140a576020820181803683370190505b5090508181016020015b5f19016f181899199a1a9b1b9c1cb0b131b232b360811b600a86061a8153600a850494508461141457509392505050565b6001600160a01b03821661146e57604051633250574960e11b81525f60048201526024016104b6565b5f61147a83835f610b11565b90506001600160a01b038116156107e7576040516339e3563760e11b81525f60048201526024016104b6565b6114b18383836115e1565b6107e7576001600160a01b0383166114df57604051637e27328960e01b8152600481018290526024016104b6565b60405163177e802f60e01b81526001600160a01b0383166004820152602481018290526044016104b6565b5f8072184f03e93ff9f4daa797ed6e38ed64bf6a1f0160401b83106115485772184f03e93ff9f4daa797ed6e38ed64bf6a1f0160401b830492506040015b6d04ee2d6d415b85acef81000000008310611574576d04ee2d6d415b85acef8100000000830492506020015b662386f26fc10000831061159257662386f26fc10000830492506010015b6305f5e10083106115aa576305f5e100830492506008015b61271083106115be57612710830492506004015b606483106115d0576064830492506002015b600a83106104625760010192915050565b5f6001600160a01b03831615801590610b1d5750826001600160a01b0316846001600160a01b0316148061161a575061161a8484610a34565b80610b1d5750505f908152600460205260409020546001600160a01b03908116911614919050565b6001600160e01b0319811681146107ca575f5ffd5b5f60208284031215611667575f5ffd5b81356110e481611642565b5f60208284031215611682575f5ffd5b5035919050565b5f81518084528060208401602086015e5f602082860101526020601f19601f83011685010191505092915050565b602081525f6110e46020830184611689565b80356001600160a01b03811681146116df575f5ffd5b919050565b5f5f604083850312156116f5575f5ffd5b6116fe836116c9565b946020939093013593505050565b5f5f5f6060848603121561171e575f5ffd5b611727846116c9565b9250611735602085016116c9565b929592945050506040919091013590565b5f60208284031215611756575f5ffd5b6110e4826116c9565b5f5f60408385031215611770575f5ffd5b611779836116c9565b91506020830135801515811461178d575f5ffd5b809150509250929050565b634e487b7160e01b5f52604160045260245ffd5b5f5f5f5f608085870312156117bf575f5ffd5b6117c8856116c9565b93506117d6602086016116c9565b925060408501359150606085013567ffffffffffffffff8111156117f8575f5ffd5b8501601f81018713611808575f5ffd5b803567ffffffffffffffff81111561182257611822611798565b604051601f8201601f19908116603f0116810167ffffffffffffffff8111828210171561185157611851611798565b604052818152828201602001891015611868575f5ffd5b816020840160208301375f6020838301015280935050505092959194509250565b5f5f6020838503121561189a575f5ffd5b823567ffffffffffffffff8111156118b0575f5ffd5b8301601f810185136118c0575f5ffd5b803567ffffffffffffffff8111156118d6575f5ffd5b8560208284010111156118e7575f5ffd5b6020919091019590945092505050565b5f5f60408385031215611908575f5ffd5b611911836116c9565b915061191f602084016116c9565b90509250929050565b634e487b7160e01b5f52603260045260245ffd5b600181811c9082168061195057607f821691505b60208210810361196e57634e487b7160e01b5f52602260045260245ffd5b50919050565b634e487b7160e01b5f52601160045260245ffd5b5f6001820161199957611999611974565b5060010190565b602081525f5f83546119b18161193c565b806020860152600182165f81146119cf57600181146119eb57611a1c565b60ff1983166040870152604082151560051b8701019350611a1c565b865f5260205f205f5b83811015611a13578154888201604001526001909101906020016119f4565b87016040019450505b509195945050505050565b6001600160a01b03858116825284166020820152604081018390526080606082018190525f90611a5990830184611689565b9695505050505050565b5f60208284031215611a73575f5ffd5b81516110e481611642565b5f81518060208401855e5f93019283525090919050565b5f610b1d611aa38386611a7e565b84611a7e565b601f8211156107e757805f5260205f20601f840160051c81016020851015611ace5750805b601f840160051c820191505b81811015610d83575f8155600101611ada565b815167ffffffffffffffff811115611b0757611b07611798565b611b1b81611b15845461193c565b84611aa9565b6020601f821160018114611b4d575f8315611b365750848201515b5f19600385901b1c1916600184901b178455610d83565b5f84815260208120601f198516915b82811015611b7c5787850151825560209485019460019092019101611b5c565b5084821015611b9957868401515f19600387901b60f8161c191681555b50505050600190811b01905550565b8181038181111561046257610462611974565b634e487b7160e01b5f52603160045260245ffdfea26469706673582212205afc85491c0ba7fded5f84f543c86b8f0f9abd1c2df0fafcf16ed4f5c210394464736f6c634300081c0033",
  "linkReferences": {},
  "deployedLinkReferences": {},
  "immutableReferences": {},
  "inputSourceName": "project/contracts/ElemNFT.sol",
  "buildInfoId": "solc-0_8_28-57b7a201d69642d3cb7e883d498302ac3452dd86"
}