{
  "_format": "hh3-artifact-1",
  "contractName": "PriceFeed",
  "sourceName": "contracts/PriceFeed.sol",
  "abi": [
    {
      "inputs": [
        {
          "internalType": "address",
          "name": "feedAddress",
          "type": "address"
        },
        {
          "internalType": "address",
          "name": "initialOwner",
          "type": "address"
        }
      ],
      "stateMutability": "nonpayable",
      "type": "constructor"
    },
    {
      "inputs": [
        {
          "internalType": "address",
          "name": "owner",
          "type": "address"
        }
      ],
      "name": "OwnableInvalidOwner",
      "type": "error"
    },
    {
      "inputs": [
        {
          "internalType": "address",
          "name": "account",
          "type": "address"
        }
      ],
      "name": "OwnableUnauthorizedAccount",
      "type": "error"
    },
    {
      "anonymous": false,
      "inputs": [
        {
          "indexed": true,
          "internalType": "address",
          "name": "previousOwner",
          "type": "address"
        },
        {
          "indexed": true,
          "internalType": "address",
          "name": "newOwner",
          "type": "address"
        }
      ],
      "name": "OwnershipTransferred",
      "type": "event"
    },
    {
      "inputs": [],
      "name": "FALLBACK_PRICE",
      "outputs": [
        {
          "internalType": "int256",
          "name": "",
          "type": "int256"
        }
      ],
      "stateMutability": "view",
      "type": "function"
    },
    {
      "inputs": [],
      "name": "getLatestPrice",
      "outputs": [
        {
          "internalType": "int256",
          "name": "price",
          "type": "int256"
        }
      ],
      "stateMutability": "view",
      "type": "function"
    },
    {
      "inputs": [],
      "name": "owner",
      "outputs": [
        {
          "internalType": "address",
          "name": "",
          "type": "address"
        }
      ],
      "stateMutability": "view",
      "type": "function"
    },
    {
      "inputs": [],
      "name": "renounceOwnership",
      "outputs": [],
      "stateMutability": "nonpayable",
      "type": "function"
    },
    {
      "inputs": [
        {
          "internalType": "address",
          "name": "newFeed",
          "type": "address"
        }
      ],
      "name": "setFeed",
      "outputs": [],
      "stateMutability": "nonpayable",
      "type": "function"
    },
    {
      "inputs": [
        {
          "internalType": "address",
          "name": "newOwner",
          "type": "address"
        }
      ],
      "name": "transferOwnership",
      "outputs": [],
      "stateMutability": "nonpayable",
      "type": "function"
    }
  ],
  "bytecode": "0x608060405234801561000f575f5ffd5b5060405161045e38038061045e83398101604081905261002e916100f6565b806001600160a01b03811661005c57604051631e4fbdf760e01b81525f600482015260240160405180910390fd5b6100658161008c565b5050600180546001600160a01b0319166001600160a01b0392909216919091179055610127565b5f80546001600160a01b038381166001600160a01b0319831681178455604051919092169283917f8be0079c531659141344cd1fd0a4f28419497f9722a3daafe3b4186f6b6457e09190a35050565b80516001600160a01b03811681146100f1575f5ffd5b919050565b5f5f60408385031215610107575f5ffd5b610110836100db565b915061011e602084016100db565b90509250929050565b61032a806101345f395ff3fe608060405234801561000f575f5ffd5b5060043610610060575f3560e01c806355b775ea146100645780636ebe413e14610079578063715018a6146100985780638da5cb5b146100a05780638e15f473146100ba578063f2fde38b146100c2575b5f5ffd5b61007761007236600461025b565b6100d5565b005b610085642e90edd00081565b6040519081526020015b60405180910390f35b6100776100ff565b5f546040516001600160a01b03909116815260200161008f565b610085610112565b6100776100d036600461025b565b61019e565b6100dd6101e0565b600180546001600160a01b0319166001600160a01b0392909216919091179055565b6101076101e0565b6101105f61020c565b565b60015460408051633fabe5a360e21b815290515f926001600160a01b03169163feaf968c9160048083019260a09291908290030181865afa925050508015610177575060408051601f3d908101601f19168201909252610174918101906102a6565b60015b15610194575f84131561018e575091949350505050565b50505050505b50642e90edd00090565b6101a66101e0565b6001600160a01b0381166101d457604051631e4fbdf760e01b81525f60048201526024015b60405180910390fd5b6101dd8161020c565b50565b5f546001600160a01b031633146101105760405163118cdaa760e01b81523360048201526024016101cb565b5f80546001600160a01b038381166001600160a01b0319831681178455604051919092169283917f8be0079c531659141344cd1fd0a4f28419497f9722a3daafe3b4186f6b6457e09190a35050565b5f6020828403121561026b575f5ffd5b81356001600160a01b0381168114610281575f5ffd5b9392505050565b805169ffffffffffffffffffff811681146102a1575f5ffd5b919050565b5f5f5f5f5f60a086880312156102ba575f5ffd5b6102c386610288565b602087015160408801516060890151929750909550935091506102e860808701610288565b9050929550929590935056fea2646970667358221220e355b247150074bc073276ad17404f3f07a07dfb0c4a3ee4ae58cacc6fca983f64736f6c634300081c0033",
  "linkReferences": {},
  "deployedLinkReferences": {},
  "immutableReferences": {},
  "inputSourceName": "project/contracts/PriceFeed.sol",
  "buildInfoId": "solc-0_8_28-057e260f62c94aba83f2c333295ac485059b58cd"
}